:100000000C948B000C94AA000C94AA000C94AA00E7
:100010000C94AA000C94AA000C94AA000C94AA00B8
:100020000C94AA000C94AA000C94AA000C94AA00A8
:100030000C94AA000C9460040C94AA000C94AA00DE
:100040000C94AA000C94AA000C94AA000C94AA0088
:100050000C94AA000C94AA000C94AA000C94AA0078
:100060000C94AA000C94AA000C94AA000C94AA0068
:100070000C94AA000C94AA000C94AA000C94AA0058
:100080000C94AA000C94AA000C94AA00C003320499
:1000900032043204320432043204320432043204B0
:1000A00032043204320432043204320432043204A0
:1000B0003204320432043204320432043204320490
:1000C0003204320432043204320432043204320480
:1000D00032042B0432043204320432043204320477
:1000E0001E04320432043204320432042504C303F1
:1000F000CA03D103D803DF03E603ED03F403FB03D4
:10010000320432043204320432043204320402046F
:1001100009041004170411241FBECFEFD0E4DEBF82
:10012000CDBF11E0A0E0B1E0E0E6FCE000E00BBFF5
:1001300002C007900D92A034B107D9F721E0A0E4E6
:10014000B1E001C01D92A236B207E1F70E94250579
:100150000C942E060C94000040E050E00CC000000F
:100160002F5F3F4F02C020E030E0273063E03607CA
:10017000B4F34F5F5F4F48175907ACF308959BB135
:100180009F7B9BB982B98BB180688BB900008BB122
:100190008F778BB982E090E00E94AC00089581E0F7
:1001A0000E94BF000895813120F481580E94BF0051
:1001B000089581550E94BF00089584E690E00E9452
:1001C000AC0088E30E94BF0086E00E94BF008FE081
:1001D0000E94BF0081E00E94BF008AE090E00E9480
:1001E000AC0008959BB190649BB982B98BB18068D3
:1001F0008BB900008BB18F778BB981E090E00E94C2
:10020000AC000895EF92FF920F931F93CF93DF936B
:10021000182FEB010E94CF000EC001E0010F812FCB
:100220000E94D3007E018FEFE81AF80A88810E94AD
:10023000F200102FE70188818111EFCFDF91CF917C
:100240001F910F91FF90EF900895CF93C82F8A30A0
:1002500019F48DE00E9425018091C00085FFFCCF3C
:10026000C093C60080E090E0CF910895CF93DF93D4
:10027000EC018230910569F12CF40097C1F10197EE
:10028000E9F03AC08330910519F0049749F134C080
:1002900080914701843481F50E94CF0082E00E9462
:1002A000D300809110010E94F20081E00E94D300EF
:1002B00082E080930F01C1E0D0E01EC08091470131
:1002C000843411F4C2E0D0E080914101811112C068
:1002D00013C080914701843479F4C1E0D0E00CC0B0
:1002E00080914701843441F4C0E0D0E005C0C3E010
:1002F000D0E002C0C4E0D0E0C130D105A9F01CF4C8
:10030000209749F054C1C330D10541F0C430D10524
:1003100009F443C14CC11092410149C160E071E050
:1003200081E00E94020143C10E94BC058170907867
:10033000992324F401978E6F9F6F0196982F8093D5
:10034000610181111DC080910B01883011F0843151
:10035000B9F480E10E94D30080910D010E94F20067
:1003600081E00E94D30080E20E94F20081E10E94BD
:10037000D30080E20E94F20080E180930C0149C02A
:100380009130E9F480910B01883011F08431B9F497
:1003900080E20E94D30080910D010E94F20081E072
:1003A0000E94D30080E20E94F20081E10E94D3000B
:1003B00080E20E94F20080E280930C012AC08091CA
:1003C0000C01813011F0813169F481E00E94D30089
:1003D00080E20E94F20081E10E94D30080E20E944C
:1003E000F20017C08130A9F0813199F00E94D3004A
:1003F00080E20E94F20080910C0181500E94D300A3
:1004000080910D010E94F20080910C018150809337
:100410000C010E94BC0581709078992324F4019707
:100420008E6F9F6F0196982F8093610181111DC07F
:1004300080910B01813011F08131B9F480E10E948B
:10044000D30080910E010E94F20081E00E94D3004F
:1004500080E20E94F20081E10E94D30080E20E94CB
:10046000F20080E180930B0134C09130E9F4809177
:100470000B01813011F08131B9F480E20E94D30088
:1004800080910E010E94F20081E00E94D30080E280
:100490000E94F20081E10E94D30080E20E94F200FB
:1004A00080E280930B0115C080910B010E94D30064
:1004B00080E20E94F20080910B0181500E94D300E3
:1004C00080910E010E94F20080910B018150809377
:1004D0000B01809147018134A1F482E00E94D30096
:1004E000809110010E94F20082E10E94D30080E21C
:1004F0000E94F20081E00E94D30082E080930F010D
:1005000015C0823499F482E00E94D30080E20E94F8
:10051000F20082E10E94D300809110010E94F2005B
:1005200081E10E94D30082E180930F0180910F014D
:1005300090910B01891721F090910C01891304C04F
:1005400081E08093410105C0809140018F5F8093DD
:10055000400180914001823379F4E8E4F1E086E9DA
:1005600090E0A0E0B0E0828F938FA48FB58F868F4C
:10057000978FA0A3B1A31BC08436C9F4E8E4F1E0CF
:1005800084E690E0A0E0B0E0828F938FA48FB58FD7
:10059000868F978FA0A3B1A30AC081E08093410109
:1005A0000E94CF0064E371E081E00E940201CE016D
:1005B000DF91CF910895442349F021E030E002C05B
:1005C000220F331F6A95E2F7822B089521E030E075
:1005D00002C0220F331F6A95E2F720958223089507
:1005E00021E030E002C0220F331F6A95E2F7822338
:1005F000089540E064E08FEF0E94DB0288B90000BC
:1006000086B160E080950E94F002811180C086B1C1
:1006100061E080950E94F00281117BC086B162E0AA
:1006200080950E94F002811176C086B163E08095CA
:100630000E94F002811171C040E065E08FEF0E94DE
:10064000DB0288B9000086B160E080950E94F0026C
:10065000811165C086B161E080950E94F002811130
:1006600060C086B162E080950E94F00281115BC09B
:1006700086B163E080950E94F002811156C040E08F
:1006800066E08FEF0E94DB0288B9000086B160E06F
:1006900080950E94F00281114AC086B161E0809588
:1006A0000E94F002811145C086B162E080950E94EF
:1006B000F002811140C086B163E080950E94F00293
:1006C00081113BC040E067E08FEF0E94DB0288B9F8
:1006D000000086B160E080950E94F00281112FC079
:1006E00086B161E080950E94F00281112AC086B136
:1006F00062E080950E94F002811125C086B163E01E
:1007000080950E94F0028823F9F084E4089581E343
:10071000089584E3089587E308958AE2089582E3C3
:10072000089585E3089588E3089580E3089583E3B9
:10073000089586E3089589E3089583E2089581E4A6
:10074000089582E4089583E40895CF93DF93029798
:1007500018F4C1E0D0E002C0C0E0D0E0C130D10563
:1007600009F082C00E94F9028093470190E085342D
:10077000910508F077C0FC01EA5BFF4F0C94680517
:100780008FE185B971C081E085B98091470180937F
:1007900060016AC082E085B9809147018093600161
:1007A00063C083E085B980914701809360015CC09C
:1007B00084E085B9809147018093600155C085E050
:1007C00085B980914701809360014EC086E085B96C
:1007D000809147018093600147C087E085B980918F
:1007E00047018093600140C088E085B9809147014E
:1007F0008093600139C089E085B980914701809379
:10080000600132C08AE085B9809147018093600120
:100810002BC08BE085B9809147018093600124C093
:100820008CE085B980914701809360011DC08DE007
:1008300085B9809147018093600116C08EE085B92B
:1008400080914701809360010FC015B880914701E6
:100850008093600109C08FE085B980914701809342
:10086000600102C08BE185B9CE01DF91CF9108957F
:100870008BE0809381008DE790E0909389008093D6
:10088000880082E080936F001092850010928400AF
:100890008091110190911201A0911301B091140166
:1008A0008093420190934301A0934401B09345018A
:1008B0008FB780688FBF089581E0809346010895C7
:1008C0001F920F920FB60F9211240BB60F922F9317
:1008D0003F934F935F936F937F938F939F93AF93C8
:1008E000BF93EF93FF938091420190914301A091B8
:1008F0004401B09145010197A109B10980934201DA
:1009000090934301A0934401B0934501892B8A2B16
:100910008B2B91F40E945C04809111019091120143
:10092000A0911301B091140180934201909343016F
:10093000A0934401B0934501FF91EF91BF91AF9116
:100940009F918F917F916F915F914F913F912F91E7
:100950000F900BBE0F900FBE0F901F9018956093D5
:10096000110170931201809313019093140160930D
:10097000420170934301809344019093450108958F
:10098000EF92FF921F93CF93DF9310E055C0C12FDA
:10099000D0E0FE01EE0FFF1FEC0FFD1FEE0FFF1F5B
:1009A000EE0FFF1FE85BFE4F468157816085718522
:1009B00082819381A481B581481759076A077B0713
:1009C00018F1809146018823E1F37E01EE0CFF1CB3
:1009D000EC0EFD1EC701880F991F880F991F9C01FF
:1009E000285B3E4F7901D9011A96ED91FC911B9736
:1009F0008D919C910995F7019183808316821782CE
:100A00001086118610924601CE01880F991FFC01B5
:100A1000EC0FFD1FEE0FFF1FEE0FFF1FE85BFE4FF9
:100A200086819781A085B185C296A11DB11D86835F
:100A30009783A087B1871F5F123008F4A8CFDF919A
:100A4000CF911F91FF90EF900895E8E4F1E01182BB
:100A5000108284E690E0A0E0B0E082839383A483D8
:100A6000B58386839783A087B18785EA93E09387D0
:100A700082871586148688EC90E0A0E0B0E0868737
:100A80009787A08BB18B828B938BA48BB58B86E3DE
:100A900091E0978B868B62E370E080E090E00E94AB
:100AA000AF040E9438048FEF81B912B884B915B829
:100AB00090EF97B99FE098B98AB91BB80E94DD0002
:100AC00060E071E081E00E9402010E94C004FDCF5D
:100AD000EE0FFF1F0024001C0BBE0790F691E02DC7
:100AE00009948F929F92AF92BF92CF92DF92EF9232
:100AF000FF92CF93DF93EC01688179818A819B819A
:100B0000611571058105910521F464E279ED8BE5AC
:100B100097E02DE133EF41E050E00E94CB05490121
:100B20005A019B01AC01A7EAB1E40E94EA056B01FE
:100B30007C01ACEEB4EFA50194010E94F805DC0144
:100B4000CB018C0D9D1DAE1DBF1DB7FF03C00197CE
:100B5000A109B04888839983AA83BB839F77DF91DB
:100B6000CF91FF90EF90DF90CF90BF90AF909F908C
:100B70008F9008950C94710583E291E00C947105B7
:100B8000A0E0B0E08093230190932401A09325017D
:100B9000B09326010895052E97FB1EF400940E9441
:100BA000E20557FD07D00E94FD0507FC03D04EF477
:100BB0000C94E20550954095309521953F4F4F4F4D
:100BC0005F4F089590958095709561957F4F8F4FF9
:100BD0009F4F08950E941F06A59F900DB49F900DF2
:100BE000A49F800D911D11240895B7FF0C94EA0570
:100BF0000E94EA05821B930B0895A1E21A2EAA1BFC
:100C0000BB1BFD010DC0AA1FBB1FEE1FFF1FA217BC
:100C1000B307E407F50720F0A21BB30BE40BF50BB9
:100C2000661F771F881F991F1A9469F76095709542
:100C3000809590959B01AC01BD01CF010895A29FC5
:100C4000B001B39FC001A39F700D811D1124911DA0
:100C5000B29F700D811D1124911D0895F894FFCF4E
:100C60004420746F20737461727400010140230288
:100C70003E0100000000000002000000002501000D
:100C800000000001000000C8000000640000003205
:100C90000000000247616D65204F766572210000FB
:00000001FF
