:100000000C948B000C94AA000C94AA000C94AA00E7
:100010000C94AA000C94AA000C94AA000C94AA00B8
:100020000C94AA000C94AA000C94AA000C94AA00A8
:100030000C94AA000C94F0020C94AA000C94AA0050
:100040000C94AA000C94AA000C94AA000C94AA0088
:100050000C94AA000C94AA000C94AA000C94AA0078
:100060000C94AA000C94AA000C94AA000C94AA0068
:100070000C94AA000C94AA000C94AA000C94AA0058
:100080000C94AA000C94AA000C94AA004C02C20280
:10009000C202C202C202C202C202C202C202C20240
:1000A000C202C202C202C202C202C202C202C20230
:1000B000C202C202C202C202C202C202C202C20220
:1000C000C202C202C202C202C202C202C202C20210
:1000D000C202BB02C202C202C202C202C202C20207
:1000E000AE02C202C202C202C202C202B502530280
:1000F0005A02610268026F0276027D0284028B025C
:10010000C202C202C202C202C202C202C2029202FF
:100110009902A002A70211241FBECFEFD0E4DEBFD8
:10012000CDBF11E0A0E0B1E0E0E0F8E000E00BBFFF
:1001300002C007900D92A233B107D9F721E0A2E3E4
:10014000B1E001C01D92A135B207E1F70E94B603EC
:100150000C94FE030C94000040E050E00CC0000042
:100160002F5F3F4F02C020E030E0273063E03607CA
:10017000B4F34F5F5F4F48175907ACF308959BB135
:100180009F7B9BB982B98BB180688BB900008BB122
:100190008F778BB982E090E00E94AC00089581E0F7
:1001A0000E94BF000895813120F481580E94BF0051
:1001B000089581550E94BF00089584E690E00E9452
:1001C000AC0088E30E94BF0086E00E94BF008FE081
:1001D0000E94BF0081E00E94BF008AE090E00E9480
:1001E000AC0008959BB190649BB982B98BB18068D3
:1001F0008BB900008BB18F778BB981E090E00E94C2
:10020000AC000895EF92FF920F931F93CF93DF936B
:10021000182FEB010E94CF000EC001E0010F812FCB
:100220000E94D3007E018FEFE81AF80A88810E94AD
:10023000F200102FE70188818111EFCFDF91CF917C
:100240001F910F91FF90EF900895CF93C82F8A30A0
:1002500019F48DE00E9425018091C00085FFFCCF3C
:10026000C093C60080E090E0CF910895CF93DF93D4
:10027000EC018130910541F08230910511F0892B1C
:1002800051F4C1E0D0E009C080915001882329F0E9
:10029000C2E0D0E002C0C0E0D0E0C230D10599F4A5
:1002A000809111010E94D300809137010E94F200D9
:1002B00080911101803121F481E08093110103C00C
:1002C0008F5F80931101CE01DF91CF910895442378
:1002D00049F021E030E002C0220F331F6A95E2F7B7
:1002E000822B089521E030E002C0220F331F6A956F
:1002F000E2F720958223089521E030E002C0220F2A
:10030000331F6A95E2F78223089540E064E08FEF9F
:100310000E94670188B9000086B160E080950E9464
:100320007C01811180C086B161E080950E947C01D2
:1003300081117BC086B162E080950E947C018111B1
:1003400076C086B163E080950E947C01811171C006
:1003500040E065E08FEF0E94670188B9000086B138
:1003600060E080950E947C01811165C086B161E0EA
:1003700080950E947C01811160C086B162E0809509
:100380000E947C0181115BC086B163E080950E9470
:100390007C01811156C040E066E08FEF0E9467014A
:1003A00088B9000086B160E080950E947C018111CF
:1003B0004AC086B161E080950E947C01811145C0F0
:1003C00086B162E080950E947C01811140C086B1B7
:1003D00063E080950E947C0181113BC040E067E0B2
:1003E0008FEF0E94670188B9000086B160E08095B8
:1003F0000E947C0181112FC086B161E080950E942E
:100400007C0181112AC086B162E080950E947C0146
:10041000811125C086B163E080950E947C0188230C
:10042000F9F084E4089581E3089584E3089587E36F
:1004300008958AE2089582E3089585E3089588E3A4
:10044000089580E3089583E3089586E3089589E39A
:10045000089583E2089581E4089582E4089583E491
:100460000895CF93DF93029718F4C1E0D0E002C063
:10047000C0E0D0E0C130D10509F086C00E948501FE
:100480008093370190E08534910508F07BC0FC0132
:10049000EA5BFF4F0C94F5038FE185B9809137013A
:1004A0008093500171C081E085B9809137018093BC
:1004B00050016AC082E085B9809137018093500174
:1004C00063C083E085B980913701809350015CC09F
:1004D00084E085B9809137018093500155C085E053
:1004E00085B980913701809350014EC086E085B96F
:1004F000809137018093500147C087E085B9809192
:1005000037018093500140C088E085B98091370160
:100510008093500139C089E085B98091370180937B
:10052000500132C08AE085B9809137018093500133
:100530002BC08BE085B9809137018093500124C096
:100540008CE085B980913701809350011DC08DE00A
:1005500085B9809137018093500116C08EE085B92E
:1005600080913701809350010FC015B880913701F9
:100570008093500109C08FE085B980913701809345
:10058000500102C08BE185B9CE01DF91CF91089572
:100590008BE0809381008DE790E0909389008093B9
:1005A000880082E080936F00109285001092840092
:1005B0008091120190911301A0911401B091150145
:1005C0008093320190933301A0933401B0933501AD
:1005D0008FB780688FBF089581E0809336010895BA
:1005E0001F920F920FB60F9211240BB60F922F93FA
:1005F0003F934F935F936F937F938F939F93AF93AB
:10060000BF93EF93FF938091320190913301A091BA
:100610003401B09135010197A109B10980933201EC
:1006200090933301A0933401B0933501892B8A2B29
:100630008B2B91F40E94EC02809112019091130196
:10064000A0911401B0911501809332019093330170
:10065000A0933401B0933501FF91EF91BF91AF9119
:100660009F918F917F916F915F914F913F912F91CA
:100670000F900BBE0F900FBE0F901F9018956093B8
:1006800012017093130180931401909315016093EC
:1006900032017093330180933401909335010895B2
:1006A000EF92FF921F93CF93DF9310E056C0C12FBC
:1006B000D0E0FE01EE0FFF1FEC0FFD1FEE0FFF1F3E
:1006C000EE0FFF1FE85CFE4F468157816085718504
:1006D00082819381A481B581481759076A077B07F6
:1006E00018F1809136018823E1F37E01EE0CFF1CA6
:1006F000EC0EFD1EC701880F991F880F991F9C01E2
:10070000285C3E4F7901D9011A96ED91FC911B9717
:100710008D919C910995F7019183808316821782B0
:100720001086118610923601CE01880F991FFC01A8
:10073000EC0FFD1FEE0FFF1FEE0FFF1FE85CFE4FDB
:1007400086819781A085B1858C599F4FAF4FBF4F50
:1007500086839783A087B1871F5F123008F4A7CFE5
:10076000DF91CF911F91FF90EF900895E8E3F1E0C2
:100770001182108284E690E0A0E0B0E0828393834F
:10078000A483B58386839783A087B18721E332E072
:10079000338722871586148686879787A08BB18B2F
:1007A000828B938BA48BB58B86E391E0978B868BA2
:1007B00064E670E080E090E00E943F030E94C8027F
:1007C0008FEF81B912B884B915B890EF97B99FE04F
:1007D00098B98AB91BB80E94DD0060E071E081E041
:1007E0000E9402010E945003FDCFEE0FFF1F002464
:1007F000001C0BBE0790F691E02D0994F894FFCFF2
:10080000436F6E67726174756C6174696F6E73218A
:1008100000010100000000000002000000002501AE
:10082000000000006400000064000000640000009C
:020830000200C4
:00000001FF
