:100000000C948B000C94AA000C94AA000C94AA00E7
:100010000C94AA000C94AA000C94AA000C94AA00B8
:100020000C94AA000C94AA000C94AA000C94AA00A8
:100030000C94AA000C94C2030C94AA000C94AA007D
:100040000C94AA000C94AA000C94AA000C94AA0088
:100050000C94AA000C94AA000C94AA000C94AA0078
:100060000C94AA000C94AA000C94AA000C94AA0068
:100070000C94AA000C94AA000C94AA000C94AA0058
:100080000C94AA000C94AA000C94AA001E039403DA
:1000900094039403940394039403940394039403A8
:1000A0009403940394039403940394039403940398
:1000B0009403940394039403940394039403940388
:1000C0009403940394039403940394039403940378
:1000D00094038D039403940394039403940394036F
:1000E00080039403940394039403940387032503E8
:1000F0002C0333033A03410348034F0356035D03C4
:100100009403940394039403940394039403640367
:100110006B037203790311241FBECFEFD0E4DEBF5F
:10012000CDBF11E0A0E0B1E0EEE1FBE000E00BBFED
:1001300002C007900D92AE33B107D9F721E0AEE3CC
:10014000B1E001C01D92AF35B207E1F70E9488040B
:100150000C948D050C94000040E050E00CC00000B1
:100160002F5F3F4F02C020E030E0273063E03607CA
:10017000B4F34F5F5F4F48175907ACF308959BB135
:100180009F7B9BB982B98BB180688BB900008BB122
:100190008F778BB982E090E00E94AC00089581E0F7
:1001A0000E94BF000895813120F481580E94BF0051
:1001B000089581550E94BF00089584E690E00E9452
:1001C000AC0088E30E94BF0086E00E94BF008FE081
:1001D0000E94BF0081E00E94BF008AE090E00E9480
:1001E000AC0008959BB190649BB982B98BB18068D3
:1001F0008BB900008BB18F778BB981E090E00E94C2
:10020000AC000895EF92FF920F931F93CF93DF936B
:10021000182FEB010E94CF000EC001E0010F812FCB
:100220000E94D3007E018FEFE81AF80A88810E94AD
:10023000F200102FE70188818111EFCFDF91CF917C
:100240001F910F91FF90EF900895CF93C82F8A30A0
:1002500019F48DE00E9425018091C00085FFFCCF3C
:10026000C093C60080E090E0CF910895CF93DF93D4
:10027000EC018230910569F12CF40097C1F10197EE
:10028000E9F03AC08330910519F0049749F134C080
:1002900080914401843481F50E94CF0082E00E9465
:1002A000D30080910E010E94F20081E00E94D300F1
:1002B00082E080930D01C1E0D0E01EC08091440136
:1002C000843411F4C2E0D0E080913E01811112C06B
:1002D00013C080914401843479F4C1E0D0E00CC0B3
:1002E00080914401843441F4C0E0D0E005C0C3E013
:1002F000D0E002C0C4E0D0E0C130D105A9F01CF4C8
:10030000209749F0B2C0C330D10541F0C430D105C7
:1003100009F4A1C0AAC010923E01A7C060E071E03C
:1003200081E00E940201A1C00E941B0581709078AB
:10033000992324F401978E6F9F6F0196982F8093D5
:100340005E0181111DC080910B01813011F081315E
:10035000B9F480E10E94D30080910C010E94F20068
:1003600081E00E94D30080E20E94F20081E10E94BD
:10037000D30080E20E94F20080E180930B0134C040
:100380009130E9F480910B01813011F08131B9F4A1
:1003900080E20E94D30080910C010E94F20081E073
:1003A0000E94D30080E20E94F20081E10E94D3000B
:1003B00080E20E94F20080E280930B0115C08091E0
:1003C0000B010E94D30080E20E94F20080910B0199
:1003D00081500E94D30080910C010E94F200809114
:1003E0000B01815080930B01809144018134A1F471
:1003F00082E00E94D30080910E010E94F20082E10F
:100400000E94D30080E20E94F20081E00E94D300AB
:1004100082E080930D0115C0823499F482E00E943D
:10042000D30080E20E94F20082E10E94D30080911A
:100430000E010E94F20081E10E94D30082E18093CC
:100440000D0190910D0180910B0198130EC081E078
:1004500080933E010AC081E080933E010E94CF005C
:1004600062E371E081E00E940201CE01DF91CF9151
:100470000895442349F021E030E002C0220F331FE9
:100480006A95E2F7822B089521E030E002C0220F46
:10049000331F6A95E2F720958223089521E030E02A
:1004A00002C0220F331F6A95E2F78223089540E0CD
:1004B00064E08FEF0E94390288B9000086B160E0E5
:1004C00080950E944E02811180C086B161E08095C6
:1004D0000E944E0281117BC086B162E080950E942D
:1004E0004E02811176C086B163E080950E944E0273
:1004F000811171C040E065E08FEF0E94390288B938
:10050000000086B160E080950E944E02811165C0B6
:1005100086B161E080950E944E02811160C086B173
:1005200062E080950E944E0281115BC086B163E05B
:1005300080950E944E02811156C040E066E08FEF28
:100540000E94390288B9000086B160E080950E945F
:100550004E0281114AC086B161E080950E944E0230
:10056000811145C086B162E080950E944E028111E2
:1005700040C086B163E080950E944E0281113BC06D
:1005800040E067E08FEF0E94390288B9000086B131
:1005900060E080950E944E0281112FC086B161E01B
:1005A00080950E944E0281112AC086B162E080953A
:1005B0000E944E02811125C086B163E080950E94A1
:1005C0004E028823F9F084E4089581E3089584E3DA
:1005D000089587E308958AE2089582E3089585E304
:1005E000089588E3089580E3089583E3089586E3FA
:1005F000089589E3089583E2089581E4089582E4EB
:10060000089583E40895CF93DF93029718F4C1E02F
:10061000D0E002C0C0E0D0E0C130D10509F086C012
:100620000E9457028093440190E08534910508F0C0
:100630007BC0FC01EA5BFF4F0C94C7048FE185B9D6
:100640008091440180935D0171C081E085B9809102
:10065000440180935D016AC082E085B980914401C4
:1006600080935D0163C083E085B9809144018093EC
:100670005D015CC084E085B98091440180935D0197
:1006800055C085E085B98091440180935D014EC0DD
:1006900086E085B98091440180935D0147C087E081
:1006A00085B98091440180935D0140C088E085B99F
:1006B0008091440180935D0139C089E085B98091C2
:1006C000440180935D0132C08AE085B98091440184
:1006D00080935D012BC08BE085B9809144018093AC
:1006E0005D0124C08CE085B98091440180935D0157
:1006F0001DC08DE085B98091440180935D0116C0D5
:100700008EE085B98091440180935D010FC015B8DA
:100710008091440180935D0109C08FE085B980918B
:10072000440180935D0102C08BE185B9CE01DF9168
:10073000CF9108958BE0809381008DE790E09093B6
:1007400089008093880082E080936F00109285007A
:100750001092840080910F0190911001A0911101DD
:10076000B091120180933F0190934001A093410109
:10077000B09342018FB780688FBF089581E0809366
:10078000430108951F920F920FB60F9211240BB6DA
:100790000F922F933F934F935F936F937F938F931A
:1007A0009F93AF93BF93EF93FF9380913F019091FD
:1007B0004001A0914101B09142010197A109B10905
:1007C00080933F0190934001A0934101B093420177
:1007D000892B8A2B8B2B91F40E94BE0380910F01F1
:1007E00090911001A0911101B091120180933F01ED
:1007F00090934001A0934101B0934201FF91EF918A
:10080000BF91AF919F918F917F916F915F914F9128
:100810003F912F910F900BBE0F900FBE0F901F9026
:10082000189560930F0170931001809311019093BC
:10083000120160933F0170934001809341019093B6
:1008400042010895EF92FF921F93CF93DF9310E040
:1008500056C0C12FD0E0FE01EE0FFF1FEC0FFD1FB1
:10086000EE0FFF1FEE0FFF1FEB5BFE4F4681578120
:100870006085718582819381A481B581481759076C
:100880006A077B0718F1809143018823E1F37E0119
:10089000EE0CFF1CEC0EFD1EC701880F991F880F80
:1008A000991F9C012B5B3E4F7901D9011A96ED915E
:1008B000FC911B978D919C910995F7019183808301
:1008C000168217821086118610924301CE01880F7E
:1008D000991FFC01EC0FFD1FEE0FFF1FEE0FFF1F16
:1008E000EB5BFE4F86819781A085B1858C599F4F28
:1008F000AF4FBF4F86839783A087B1871F5F1230AA
:1009000008F4A7CFDF91CF911F91FF90EF9008954A
:10091000E5E4F1E01182108284E690E0A0E0B0E02E
:1009200082839383A483B58386839783A087B187CB
:1009300023E033E0338722871586148686879787DE
:10094000A08BB18B828B938BA48BB58B86E391E0CC
:10095000978B868B64E670E080E090E00E94110443
:100960000E949A038FEF81B912B884B915B890EF3D
:1009700097B99FE098B98AB91BB80E94DD0060E082
:1009800071E081E00E9402010E942204FDCFEE0F7F
:10099000FF1F0024001C0BBE0790F691E02D099468
:1009A0008F929F92AF92BF92CF92DF92EF92FF927F
:1009B000CF93DF93EC01688179818A819B816115F6
:1009C00071058105910521F464E279ED8BE597E0ED
:1009D0002DE133EF41E050E00E942A0549015A0120
:1009E0009B01AC01A7EAB1E40E9449056B017C01BF
:1009F000ACEEB4EFA50194010E945705DC01CB01D8
:100A00008C0D9D1DAE1DBF1DB7FF03C00197A10931
:100A1000B04888839983AA83BB839F77DF91CF9166
:100A2000FF90EF90DF90CF90BF90AF909F908F900E
:100A300008950C94D00481E291E00C94D004A0E0DD
:100A4000B0E08093210190932201A0932301B09301
:100A500024010895052E97FB1EF400940E94410581
:100A600057FD07D00E945C0507FC03D04EF40C94A0
:100A7000410550954095309521953F4F4F4F5F4F21
:100A8000089590958095709561957F4F8F4F9F4FFA
:100A900008950E947E05A59F900DB49F900DA49F80
:100AA000800D911D11240895B7FF0C9449050E94F3
:100AB0004905821B930B0895A1E21A2EAA1BBB1BAA
:100AC000FD010DC0AA1FBB1FEE1FFF1FA217B3071A
:100AD000E407F50720F0A21BB30BE40BF50B661F30
:100AE000771F881F991F1A9469F7609570958095F4
:100AF00090959B01AC01BD01CF010895A29FB0016B
:100B0000B39FC001A39F700D811D1124911DB29F41
:0E0B1000700D811D1124911D0895F894FFCFE2
:100B1E004420746F207374617274000123023E01CD
:100B2E00000000000000020000000025010000008F
:100B3E00000100000064000000640000006400007A
:0E0B4E00000247616D65204F76657221000040
:00000001FF
