:100000000C948B000C94AA000C94AA000C94AA00E7
:100010000C94AA000C94AA000C94AA000C94AA00B8
:100020000C94AA000C94AA000C94AA000C94AA00A8
:100030000C94AA000C94D6020C94AA000C94AA006A
:100040000C94AA000C94AA000C94AA000C94AA0088
:100050000C94AA000C94AA000C94AA000C94AA0078
:100060000C94AA000C94AA000C94AA000C94AA0068
:100070000C94AA000C94AA000C94AA000C94AA0058
:100080000C94AA000C94AA000C94AA003602A802B0
:10009000A802A802A802A802A802A802A802A80210
:1000A000A802A802A802A802A802A802A802A80200
:1000B000A802A802A802A802A802A802A802A802F0
:1000C000A802A802A802A802A802A802A802A802E0
:1000D000A802A102A802A802A802A802A802A802D7
:1000E0009402A802A802A802A802A8029B02390250
:1000F000400247024E0255025C0263026A0271022C
:10010000A802A802A802A802A802A802A8027802CF
:100110007F0286028D0211241FBECFEFD0E4DEBF26
:10012000CDBF11E0A0E0B1E0E4EDF7E000E00BBFEF
:1001300002C007900D92A232B107D9F721E0A2E2E6
:10014000B1E001C01D92A134B207E1F70E949C0307
:100150000C94E8030C94000040E050E00CC0000058
:100160002F5F3F4F02C020E030E0273063E03607CA
:10017000B4F34F5F5F4F48175907ACF308959BB135
:100180009F7B9BB982B98BB180688BB900008BB122
:100190008F778BB982E090E00E94AC00089581E0F7
:1001A0000E94BF000895813120F481580E94BF0051
:1001B000089581550E94BF00089584E690E00E9452
:1001C000AC0088E30E94BF0086E00E94BF008FE081
:1001D0000E94BF0081E00E94BF008AE090E00E9480
:1001E000AC0008959BB190649BB982B98BB18068D3
:1001F0008BB900008BB18F778BB981E090E00E94C2
:10020000AC000895EF92FF920F931F93CF93DF936B
:10021000182FEB010E94CF000EC001E0010F812FCB
:100220000E94D3007E018FEFE81AF80A88810E94AD
:10023000F200102FE70188818111EFCFDF91CF917C
:100240001F910F91FF90EF900895CF93C82F8A30A0
:1002500019F48DE00E9425018091C00085FFFCCF3C
:10026000C093C60080E090E0CF910895CF93DF93D4
:10027000029718F4C1E0D0E002C0C0E0D0E0C13085
:10028000D10559F40E94CF00809140018093000174
:1002900060E071E081E00E940201CE01DF91CF9128
:1002A0000895442349F021E030E002C0220F331FBB
:1002B0006A95E2F7822B089521E030E002C0220F18
:1002C000331F6A95E2F720958223089521E030E0FC
:1002D00002C0220F331F6A95E2F78223089540E09F
:1002E00064E08FEF0E94510188B9000086B160E0A0
:1002F00080950E946601811180C086B161E0809581
:100300000E94660181117BC086B162E080950E94E7
:100310006601811176C086B163E080950E94660116
:10032000811171C040E065E08FEF0E94510188B9F2
:10033000000086B160E080950E946601811165C071
:1003400086B161E080950E946601811160C086B12E
:1003500062E080950E94660181115BC086B163E016
:1003600080950E946601811156C040E066E08FEFE3
:100370000E94510188B9000086B160E080950E941A
:10038000660181114AC086B161E080950E946601D4
:10039000811145C086B162E080950E94660181119D
:1003A00040C086B163E080950E94660181113BC028
:1003B00040E067E08FEF0E94510188B9000086B1EC
:1003C00060E080950E94660181112FC086B161E0D6
:1003D00080950E94660181112AC086B162E08095F5
:1003E0000E946601811125C086B163E080950E945C
:1003F00066018823F9F084E4089581E3089584E395
:10040000089587E308958AE2089582E3089585E3D5
:10041000089588E3089580E3089583E3089586E3CB
:10042000089589E3089583E2089581E4089582E4BC
:10043000089583E40895CF93DF93029718F4C1E001
:10044000D0E002C0C0E0D0E0C130D10509F082C0E8
:100450000E946F018093270190E08534910508F098
:1004600077C0FC01EA5BFF4F0C94DF038FE185B995
:1004700071C081E085B980912701809340016AC0F5
:1004800082E085B9809127018093400163C083E0B9
:1004900085B980912701809340015CC084E085B9D3
:1004A000809127018093400155C085E085B98091F6
:1004B0002701809340014EC086E085B980912701D5
:1004C0008093400147C087E085B9809127018093E0
:1004D000400140C088E085B98091270180934001A8
:1004E00039C089E085B9809127018093400132C0ED
:1004F0008AE085B980912701809340012BC08BE071
:1005000085B9809127018093400124C08CE085B992
:1005100080912701809340011DC08DE085B98091B5
:1005200027018093400116C08EE085B98091270194
:10053000809340010FC015B880912701809340013E
:1005400009C08FE085B9809127018093400102C0E6
:100550008BE185B9CE01DF91CF9108958BE0809337
:1005600081008DE790E0909389008093880082E07D
:1005700080936F0010928500109284008091020198
:1005800090910301A0910401B09105018093220193
:1005900090932301A0932401B09325018FB7806825
:1005A0008FBF089581E08093260108951F920F92D6
:1005B0000FB60F9211240BB60F922F933F934F93C8
:1005C0005F936F937F938F939F93AF93BF93EF93BB
:1005D000FF938091220190912301A0912401B09179
:1005E00025010197A109B10980932201909323016C
:1005F000A0932401B0932501892B8A2B8B2B91F496
:100600000E94D2028091020190910301A091040105
:10061000B09105018093220190932301A0932401BE
:10062000B0932501FF91EF91BF91AF919F918F9171
:100630007F916F915F914F913F912F910F900BBEE2
:100640000F900FBE0F901F9018956093020170934A
:10065000030180930401909305016093220170933C
:10066000230180932401909325010895EF92FF9236
:100670001F93CF93DF9310E056C0C12FD0E0FE014F
:10068000EE0FFF1FEC0FFD1FEE0FFF1FEE0FFF1F02
:10069000E85DFE4F46815781608571858281938137
:1006A000A481B581481759076A077B0718F1809123
:1006B00026018823E1F37E01EE0CFF1CEC0EFD1EEB
:1006C000C701880F991F880F991F9C01285D3E4F15
:1006D0007901D9011A96ED91FC911B978D919C910E
:1006E0000995F701918380831682178210861186FF
:1006F00010922601CE01880F991FFC01EC0FFD1FFF
:10070000EE0FFF1FEE0FFF1FE85DFE4F8681978102
:10071000A085B1858C599F4FAF4FBF4F868397837C
:10072000A087B1871F5F123008F4A7CFDF91CF9168
:100730001F91FF90EF900895E8E2F1E0118210829E
:1007400084E690E0A0E0B0E082839383A483B58345
:1007500086839783A087B1878BE192E09387828716
:10076000158614868CE291E0A0E0B0E0868797873A
:10077000A08BB18B828B938BA48BB58B86E391E09E
:10078000978B868B64E670E080E090E00E94250302
:100790000E94AE028FEF81B912B884B915B890EFFC
:1007A00097B99FE098B98AB91BB80E94DD0060E054
:1007B00071E081E00E9402010E943603FDCFEE0F3E
:1007C000FF1F0024001C0BBE0790F691E02D09943A
:0407D000F894FFCFCB
:1007D40030000100000000000002000000002501BC
:1007E400000000002C010000640000006400000010
:0207F400020001
:00000001FF
