:100000000C948B000C94AA000C94AA000C94AA00E7
:100010000C94AA000C94AA000C94AA000C94AA00B8
:100020000C94AA000C94AA000C94AA000C94AA00A8
:100030000C94AA000C9401020C94AA000C94AA003F
:100040000C94AA000C94AA000C94AA000C94AA0088
:100050000C94AA000C94AA000C94AA000C94AA0078
:100060000C94AA000C94AA000C94AA000C94AA0068
:100070000C94AA000C94AA000C94AA000C94AA0058
:100080000C94AA000C94AA000C94AA00A101D3011C
:10009000D301D301D301D301D301D301D301D301C0
:1000A000D301D301D301D301D301D301D301D301B0
:1000B000D301D301D301D301D301D301D301D301A0
:1000C000D301D301D301D301D301D301D301D30190
:1000D000D301D001D301D301D301D301D301D30183
:1000E000CB01D301D301D301D301D301CE01A401AC
:1000F000A701AA01AD01B001B301B601B901BC016C
:10010000D301D301D301D301D301D301D301BF0163
:10011000C201C501C80111241FBECFEFD0E4DEBF6C
:10012000CDBF11E0A0E0B1E0E0EFF5E000E00BBFF3
:1001300002C007900D92AC31B107D9F721E0ACE1D4
:10014000B1E001C01D92AE32B207E1F70E94C702D2
:100150000C94F6020C940000CF93C82F8A3019F447
:100160008DE00E94AC008091C00085FFFCCFC09361
:10017000C60080E090E0CF910895442349F021E04B
:1001800030E002C0220F331F6A95E2F7822B0895F8
:1001900021E030E002C0220F331F6A95E2F720957C
:1001A0008223089521E030E002C0220F331F6A95B8
:1001B000E2F78223089540E064E08FEF0E94BD00E3
:1001C00088B9000086B160E080950E94D20081115C
:1001D00080C086B161E080950E94D20081117BC011
:1001E00086B162E080950E94D200811176C086B10E
:1001F00063E080950E94D200811171C040E065E00B
:100200008FEF0E94BD0088B9000086B160E0809544
:100210000E94D200811165C086B161E080950E9484
:10022000D200811160C086B162E080950E94D20048
:1002300081115BC086B163E080950E94D20081117C
:1002400056C040E066E08FEF0E94BD0088B9000014
:1002500086B160E080950E94D20081114AC086B1CB
:1002600061E080950E94D200811145C086B162E0B4
:1002700080950E94D200811140C086B163E08095D4
:100280000E94D20081113BC040E067E08FEF0E94E6
:10029000BD0088B9000086B160E080950E94D20060
:1002A00081112FC086B161E080950E94D20081113A
:1002B0002AC086B162E080950E94D200811125C0DB
:1002C00086B163E080950E94D2008823F9F084E42F
:1002D000089581E3089584E3089587E308958AE209
:1002E000089582E3089585E3089588E3089580E3FF
:1002F000089583E3089586E3089589E3089583E2EA
:10030000089581E4089582E4089583E40895CF93E5
:10031000DF93029718F4C1E0D0E002C0C0E0D0E063
:10032000C130D10509F041C00E94DB00809321015A
:1003300090E085349105B8F5FC01EA5BFF4F0C9421
:10034000ED028FE185B931C081E085B92EC082E030
:1003500085B92BC083E085B928C084E085B925C064
:1003600085E085B922C086E085B91FC087E085B9E0
:100370001CC088E085B919C089E085B916C08AE03B
:1003800085B913C08BE085B910C08CE085B90DC06C
:100390008DE085B90AC08EE085B907C015B805C0E3
:1003A0008FE085B902C08BE185B9CE01DF91CF9195
:1003B00008958BE0809381008DE790E09093890011
:1003C0008093880082E080936F00109285001092E5
:1003D00084008091000190910101A0910201B091EF
:1003E000030180931C0190931D01A0931E01B09303
:1003F0001F018FB780688FBF089581E0809320012F
:1004000008951F920F920FB60F9211240BB60F9200
:100410002F933F934F935F936F937F938F939F930C
:10042000AF93BF93EF93FF9380911C0190911D01B7
:10043000A0911E01B0911F010197A109B1098093FC
:100440001C0190931D01A0931E01B0931F01892BE5
:100450008A2B8B2B91F40E94FD01809100019091D9
:100460000101A0910201B091030180931C019093BE
:100470001D01A0931E01B0931F01FF91EF91BF9149
:10048000AF919F918F917F916F915F914F913F912C
:100490002F910F900BBE0F900FBE0F901F901895CD
:1004A0006093000170930101809302019093030116
:1004B00060931C0170931D0180931E0190931F0196
:1004C0000895EF92FF921F93CF93DF9310E056C0F1
:1004D000C12FD0E0FE01EE0FFF1FEC0FFD1FEE0F4E
:1004E000FF1FEE0FFF1FEE5DFE4F468157816085B7
:1004F000718582819381A481B581481759076A0764
:100500007B0718F1809120018823E1F37E01EE0C36
:10051000FF1CEC0EFD1EC701880F991F880F991F45
:100520009C012E5D3E4F7901D9011A96ED91FC9107
:100530001B978D919C910995F70191838083168279
:1005400017821086118610922001CE01880F991F04
:10055000FC01EC0FFD1FEE0FFF1FEE0FFF1FEE5D06
:10056000FE4F86819781A085B1858C599F4FAF4FF3
:10057000BF4F86839783A087B1871F5F112309F43C
:10058000A7CFDF91CF911F91FF90EF900895E2E206
:10059000F1E01182108284E690E0A0E0B0E0828376
:1005A0009383A483B58386839783A087B18787E8E5
:1005B00091E09387828764E670E080E090E00E949B
:1005C00050020E94D9018FEF84B915B880EF87B926
:1005D0008FE088B90E946102FDCFEE0FFF1F00245B
:1005E000001C0BBE0790F691E02D0994F894FFCF04
:1005F000010000000000000200000000AC0000004C
:0C06000000006400000064000000010025
:00000001FF
